:020000040800F2
:100000006806002089010008B104000867030008A1
:10001000AD0400084302000871060008000000005B
:10002000000000000000000000000000F9040008CB
:100030004702000800000000D50400080D06000873
:10004000A3010008A3010008A3010008A301000800
:10005000A3010008A3010008A3010008A3010008F0
:10006000A3010008A3010008A3010008A3010008E0
:10007000A3010008A3010008A3010008A3010008D0
:10008000A3010008A3010008A3010008A3010008C0
:10009000A3010008A3010008A3010008A3010008B0
:1000A000A3010008A3010008A3010008A3010008A0
:1000B000A3010008A3010008A3010008A301000890
:1000C000A3010008A3010008A3010008A301000880
:1000D000A3010008A3010008A3010008A301000870
:1000E000A3010008A3010008A301000800F002F822
:1000F00000F03AF80AA090E8000C82448344AAF188
:100100000107DA4501D100F02FF8AFF2090EBAE885
:100110000F0013F0010F18BFFB1A43F0010318473B
:100120000C0600002C060000103A24BF78C878C1E5
:10013000FAD8520724BF30C830C144BF04680C60ED
:10014000704700000023002400250026103A28BF35
:1001500078C1FBD8520728BF30C148BF0B60704739
:100160001FB51FBD10B510BD00F031F81146FFF7E7
:10017000F7FF00F0BBFA00F04FF803B4FFF7F2FF0F
:1001800003BC00F057F800000948804709480047C1
:10019000FEE7FEE7FEE7FEE7FEE7FEE7FEE7FEE737
:1001A000FEE7FEE704480549054A064B7047000094
:1001B00011060008ED000008680000206806002015
:1001C000680200206802002070477047704775463B
:1001D00000F02CF8AE4605006946534620F00700B3
:1001E000854618B020B5FFF7DDFFBDE820404FF091
:1001F00000064FF000074FF000084FF0000B21F011
:100200000701AC46ACE8C009ACE8C009ACE8C009DD
:10021000ACE8C0098D46704710B50446AFF30080C6
:100220002046BDE81040FFF7A8BF00000048704717
:100230000400002001491820ABBEFEE726000200A2
:10024000704700BFFEE770472DE9F04102460025E8
:100250000026002000230024002791F803C00CF0A2
:100260000F0591F803C00CF0100CBCF1000F03D087
:1002700091F802C04CEA050591F800C0BCF1000FEE
:1002800031D0146800202BE04FF0010C0CFA00F381
:10029000B1F800C00CEA03069E4220D183004FF063
:1002A0000F0C0CFA03F7BC4305FA03FC4CEA0404F8
:1002B00091F803C0BCF1280F06D14FF0010C0CFAE5
:1002C00000FCC2F814C00AE091F803C0BCF1480F6A
:1002D00005D14FF0010C0CFA00FCC2F810C0401C14
:1002E0000828D1D31460B1F800C0BCF1FF0F34DD91
:1002F000546800202EE000F1080C4FF0010808FAC5
:100300000CF3B1F800C00CEA03069E4221D1830031
:100310004FF00F0C0CFA03F7BC4305FA03FC4CEA50
:10032000040491F803C0BCF1280F05D100F1080CBA
:1003300008FA0CF8C2F8148091F803C0BCF1480F19
:1003400007D100F1080C4FF0010808FA0CF8C2F8C8
:100350001080401C0828CED35460BDE8F081416174
:1003600070470161704700BFFEE700004CF6CC40CB
:1003700001490860704700000030004010B500F0EF
:1003800013F810BD70B505460C4645F2555000F007
:100390001FF8284600F010F8204600F013F800F08F
:1003A00003F8FFF7E3FF70BD4AF6AA200149086091
:1003B000704700000030004001494860704700006D
:1003C0000030004001498860704700000030004064
:1003D00001490860704700000030004008B52D4812
:1003E000406820F020002B49486009202A49886194
:1003F0002A48406820F0E06040F0007027494860DB
:100400000121082000F068F80121102000F064F8B4
:100410000121042000F060F84FF48040ADF80000A6
:1004200010208DF8030002208DF8020069461C4858
:10043000FFF70AFF4FF480411948FFF790FF4FF490
:100440000040ADF8000014208DF8030002208DF864
:10045000020069461348FFF7F7FE0820ADF80000D8
:1004600014208DF8030002208DF8020069460D4823
:10047000FFF7EAFE08210B48FFF773FF4FF4C05067
:10048000ADF8000048208DF8030069460648FFF7E4
:10049000DBFE08BD002004E0001002400000014027
:1004A00000100140000C01400008014000BFFEE7C1
:1004B000704710B54FF4A06000F002F810BD0000C6
:1004C00002490143024A1160704700000000FA052A
:1004D0000CED00E07047000029B1064A9269024322
:1004E000044B9A6104E0034A92698243014B9A618A
:1004F0007047000000100240704710B500F002F88D
:1005000010BD00000CB50020019000903348006839
:1005100040F480303149086000BF3048006800F482
:10052000003000900198401C0190009818B9019883
:10053000B0F5A06FF1D12948006800F4003010B187
:100540000120009001E0002000900098012843D194
:100550002348006840F01000214908600846006800
:1005600020F0030008600846006840F002000860C0
:100570001A4840681949486008464068486008467B
:10058000406840F4806048600846406820F47C1071
:1005900048600846406840F4E81048600846006833
:1005A00040F08070086000BF0C48006800F00070E8
:1005B0000028F9D00948406820F003000749486046
:1005C0000846406840F00200486000BF03484068A9
:1005D00000F00C000828F9D10CBD0000001002400A
:1005E00000200240042808D14FF0E021096941F0C1
:1005F00004014FF0E022116107E04FF0E0210969AA
:1006000021F004014FF0E0221161704770470000B3
:1006100010B51348006840F0010011490860084611
:100620004068104908400E494860084600680E4975
:1006300008400B4908600846006820F480200860E4
:100640000846406820F4FE0048604FF41F008860B0
:10065000FFF753FF4FF000600449086010BD000031
:10066000001002400000FFF8FFFFF6FE08ED00E07A
:1006700000BFFEE710B504466FF00400FFF7B2FFBD
:10068000E11704EB5171C1F3C701074A117010461D
:10069000007800EB4001C1EBC0104FF6FF7101EA9A
:1006A000C0000249088010BD0000002002000020A8
:1006B00001460D4A12884A434FF0E0235A61002256
:1006C0009A6101221A6100BF4FF0E022106900F028
:1006D00001021AB100F48032002AF5D000224FF056
:1006E000E0231A619A61704702000020FFF790FF33
:1006F0004820FFF7BFFFFFF7DCFEFFF76FFE40F279
:1007000071210620FFF73EFE0DE04FF47A70FFF7EF
:10071000CFFF0548006808B9012000E00020024929
:100720000860FFF72BFEF0E7B80122424C070008F3
:100730000000002004000000280100085007000805
:1007400004000020640600004401000800000000CE
:04000005080000ED02
:00000001FF
